{
  "_format": "hh-sol-artifact-1",
  "contractName": "WCFX",
  "abi": [
    {
      "anonymous": false,
      "inputs": [
        {
          "indexed": true,
          "internalType": "address",
          "name": "src",
          "type": "address"
        },
        {
          "indexed": true,
          "internalType": "address",
          "name": "guy",
          "type": "address"
        },
        {
          "indexed": false,
          "internalType": "uint256",
          "name": "wad",
          "type": "uint256"
        }
      ],
      "name": "Approval",
      "type": "event"
    },
    {
      "anonymous": false,
      "inputs": [
        {
          "indexed": true,
          "internalType": "address",
          "name": "dst",
          "type": "address"
        },
        {
          "indexed": false,
          "internalType": "uint256",
          "name": "wad",
          "type": "uint256"
        }
      ],
      "name": "Deposit",
      "type": "event"
    },
    {
      "anonymous": false,
      "inputs": [
        {
          "indexed": true,
          "internalType": "address",
          "name": "src",
          "type": "address"
        },
        {
          "indexed": true,
          "internalType": "address",
          "name": "dst",
          "type": "address"
        },
        {
          "indexed": false,
          "internalType": "uint256",
          "name": "wad",
          "type": "uint256"
        }
      ],
      "name": "Transfer",
      "type": "event"
    },
    {
      "anonymous": false,
      "inputs": [
        {
          "indexed": true,
          "internalType": "address",
          "name": "src",
          "type": "address"
        },
        {
          "indexed": false,
          "internalType": "uint256",
          "name": "wad",
          "type": "uint256"
        }
      ],
      "name": "Withdrawal",
      "type": "event"
    },
    {
      "inputs": [],
      "name": "a",
      "outputs": [],
      "stateMutability": "payable",
      "type": "function"
    },
    {
      "inputs": [
        {
          "internalType": "address",
          "name": "",
          "type": "address"
        },
        {
          "internalType": "address",
          "name": "",
          "type": "address"
        }
      ],
      "name": "allowance",
      "outputs": [
        {
          "internalType": "uint256",
          "name": "",
          "type": "uint256"
        }
      ],
      "stateMutability": "view",
      "type": "function"
    },
    {
      "inputs": [
        {
          "internalType": "address",
          "name": "guy",
          "type": "address"
        },
        {
          "internalType": "uint256",
          "name": "wad",
          "type": "uint256"
        }
      ],
      "name": "approve",
      "outputs": [
        {
          "internalType": "bool",
          "name": "",
          "type": "bool"
        }
      ],
      "stateMutability": "nonpayable",
      "type": "function"
    },
    {
      "inputs": [
        {
          "internalType": "address",
          "name": "",
          "type": "address"
        }
      ],
      "name": "balanceOf",
      "outputs": [
        {
          "internalType": "uint256",
          "name": "",
          "type": "uint256"
        }
      ],
      "stateMutability": "view",
      "type": "function"
    },
    {
      "inputs": [],
      "name": "decimals",
      "outputs": [
        {
          "internalType": "uint8",
          "name": "",
          "type": "uint8"
        }
      ],
      "stateMutability": "view",
      "type": "function"
    },
    {
      "inputs": [],
      "name": "deposit",
      "outputs": [],
      "stateMutability": "payable",
      "type": "function"
    },
    {
      "inputs": [],
      "name": "name",
      "outputs": [
        {
          "internalType": "string",
          "name": "",
          "type": "string"
        }
      ],
      "stateMutability": "view",
      "type": "function"
    },
    {
      "inputs": [],
      "name": "symbol",
      "outputs": [
        {
          "internalType": "string",
          "name": "",
          "type": "string"
        }
      ],
      "stateMutability": "view",
      "type": "function"
    },
    {
      "inputs": [],
      "name": "totalSupply",
      "outputs": [
        {
          "internalType": "uint256",
          "name": "",
          "type": "uint256"
        }
      ],
      "stateMutability": "view",
      "type": "function"
    },
    {
      "inputs": [
        {
          "internalType": "address",
          "name": "dst",
          "type": "address"
        },
        {
          "internalType": "uint256",
          "name": "wad",
          "type": "uint256"
        }
      ],
      "name": "transfer",
      "outputs": [
        {
          "internalType": "bool",
          "name": "",
          "type": "bool"
        }
      ],
      "stateMutability": "nonpayable",
      "type": "function"
    },
    {
      "inputs": [
        {
          "internalType": "address",
          "name": "src",
          "type": "address"
        },
        {
          "internalType": "address",
          "name": "dst",
          "type": "address"
        },
        {
          "internalType": "uint256",
          "name": "wad",
          "type": "uint256"
        }
      ],
      "name": "transferFrom",
      "outputs": [
        {
          "internalType": "bool",
          "name": "",
          "type": "bool"
        }
      ],
      "stateMutability": "nonpayable",
      "type": "function"
    },
    {
      "inputs": [
        {
          "internalType": "uint256",
          "name": "wad",
          "type": "uint256"
        }
      ],
      "name": "withdraw",
      "outputs": [],
      "stateMutability": "nonpayable",
      "type": "function"
    }
  ],
  "bytecode": "0x60c0604052600b60808190526a0aee4c2e0e0cac840868cb60ab1b60a090815261002c9160009190610078565b50604080518082019091526004808252630ae868cb60e31b602090920191825261005891600191610078565b506002805460ff1916601217905534801561007257600080fd5b5061014c565b82805461008490610111565b90600052602060002090601f0160209004810192826100a657600085556100ec565b82601f106100bf57805160ff19168380011785556100ec565b828001600101855582156100ec579182015b828111156100ec5782518255916020019190600101906100d1565b506100f89291506100fc565b5090565b5b808211156100f857600081556001016100fd565b60028104600182168061012557607f821691505b6020821081141561014657634e487b7160e01b600052602260045260246000fd5b50919050565b6107f38061015b6000396000f3fe6080604052600436106100c75760003560e01c8063313ce56711610074578063a9059cbb1161004e578063a9059cbb146101fc578063d0e30db01461021c578063dd62ed3e14610224576100c7565b8063313ce5671461018e57806370a08231146101ba57806395d89b41146101e7576100c7565b806318160ddd116100a557806318160ddd1461013157806323b872dd1461014e5780632e1a7d4d1461016e576100c7565b806306fdde03146100cc578063095ea7b3146100f75780630dbe671f14610127575b600080fd5b3480156100d857600080fd5b506100e161025c565b6040516100ee91906106ea565b60405180910390f35b34801561010357600080fd5b506101176101123660046106a9565b6102ea565b60405190151581526020016100ee565b61012f610356565b005b34801561013d57600080fd5b50475b6040519081526020016100ee565b34801561015a57600080fd5b5061011761016936600461066e565b610360565b34801561017a57600080fd5b5061012f6101893660046106d2565b6104e4565b34801561019a57600080fd5b506002546101a89060ff1681565b60405160ff90911681526020016100ee565b3480156101c657600080fd5b506101406101d5366004610622565b60036020526000908152604090205481565b3480156101f357600080fd5b506100e161058a565b34801561020857600080fd5b506101176102173660046106a9565b610597565b61012f6105ab565b34801561023057600080fd5b5061014061023f36600461063c565b600460209081526000928352604080842090915290825290205481565b600080546102699061076c565b80601f01602080910402602001604051908101604052809291908181526020018280546102959061076c565b80156102e25780601f106102b7576101008083540402835291602001916102e2565b820191906000526020600020905b8154815290600101906020018083116102c557829003601f168201915b505050505081565b3360008181526004602090815260408083206001600160a01b038716808552925280832085905551919290917f8c5be1e5ebec7d5bd14f71427d1e84f3dd0314c0f7b2291e5b200ac8c7c3b925906103459086815260200190565b60405180910390a350600192915050565b61035e6105ab565b565b6001600160a01b03831660009081526003602052604081205482111561038557600080fd5b6001600160a01b03841633148015906103c357506001600160a01b038416600090815260046020908152604080832033845290915290205460001914155b15610431576001600160a01b03841660009081526004602090815260408083203384529091529020548211156103f857600080fd5b6001600160a01b03841660009081526004602090815260408083203384529091528120805484929061042b908490610755565b90915550505b6001600160a01b03841660009081526003602052604081208054849290610459908490610755565b90915550506001600160a01b0383166000908152600360205260408120805484929061048690849061073d565b92505081905550826001600160a01b0316846001600160a01b03167fddf252ad1be2c89b69c2b068fc378daa952ba7f163c4a11628f55a4df523b3ef846040516104d291815260200190565b60405180910390a35060019392505050565b3360009081526003602052604090205481111561050057600080fd5b336000908152600360205260408120805483929061051f908490610755565b9091555050604051339082156108fc029083906000818181858888f19350505050158015610551573d6000803e3d6000fd5b5060405181815233907f7fcf532c15f0a6db0bd6d0e038bea71d30d808c7d98cb3bf7268a95bf5081b659060200160405180910390a250565b600180546102699061076c565b60006105a4338484610360565b9392505050565b33600090815260036020526040812080543492906105ca90849061073d565b909155505060405134815233907fe1fffcc4923d04b559f4d29a8bfc6cda04eb5b0d3c460751c2402c5c5cc9109c9060200160405180910390a2565b80356001600160a01b038116811461061d57600080fd5b919050565b600060208284031215610633578081fd5b6105a482610606565b6000806040838503121561064e578081fd5b61065783610606565b915061066560208401610606565b90509250929050565b600080600060608486031215610682578081fd5b61068b84610606565b925061069960208501610606565b9150604084013590509250925092565b600080604083850312156106bb578182fd5b6106c483610606565b946020939093013593505050565b6000602082840312156106e3578081fd5b5035919050565b6000602080835283518082850152825b81811015610716578581018301518582016040015282016106fa565b818111156107275783604083870101525b50601f01601f1916929092016040019392505050565b60008219821115610750576107506107a7565b500190565b600082821015610767576107676107a7565b500390565b60028104600182168061078057607f821691505b602082108114156107a157634e487b7160e01b600052602260045260246000fd5b50919050565b634e487b7160e01b600052601160045260246000fdfea26469706673582212206d3480ebed6a8cae1b7a5485e9f3e6866bdfc1fbd99cade7331c1d68713564f864736f6c63430008020033",
  "linkReferences": {},
  "deployedLinkReferences": {}
}